:020000040000FA
:040000001FD00ED02F
:0400080004EF04F00D
:040018000CEF04F0F5
:100020007F6E05A01200550E7E6EAA0E7E6E7F8238
:1000300000007FB2FED712000A26D8B00B2A1200A9
:100040007F6A746875687F800000733C00EF04F07D
:10005000066A1C0E056E0E019394000EE06F080EEA
:10006000E16FE81EE56F000EE26F070EE36FFF0E13
:10007000F86FEB0EF96FFF0EFA6FF80EFB6F030EC1
:10008000436F9E0E446F030E456F0F015D6B5C6BFB
:10009000200E706E6F6A939C939E8A8E8A8C609EEF
:1000A000040060AEFDD70FEE66F065500F0B096ED1
:1000B000F46EF5E064B02BD010EE01F0EECFE6FF69
:1000C000F42EFCD70650EBE0010AD8A407D07468E0
:1000D0007568736A040EA4DF8A9CFF000650020A4A
:1000E00005E10B6A0A6A0C900C6AD9D70650030A1C
:1000F0000AE107500A2606E108500B2203E10CB082
:1001000001D074D077D00650040AC9E177D00350EB
:10011000F86EF00BF36E0250F76E756E0150F66ECE
:10012000746E05A605D009500126E86A0222032252
:10013000300EF36001D008D0F350300A01E12AD02C
:10014000F350F00AACE132D005A405D0F6503F0BD5
:1001500002E1940E65DF05B2A2D7F650070B9FE1CE
:10016000080EF46EEE50F56E67DF0D00F42EFAD730
:10017000080EF46E0A00ED50F42EFCD7840E50DF0A
:10018000080EF46E0900F550EE18D8A40C80F42E79
:10019000F9D785D7EF50F56E4FDF0C00C40E40DF66
:1001A0000900F550EE18F42EF5D779D7EF50736E9D
:1001B00043DF040E35DF7F6A7F8000007350EE1846
:1001C000D8A40C80744A752AF42EF0D768D720B7CB
:1001D000FED7800E216F080E226F000E236F040ED3
:1001E000246F248164A02491208759D7010E266FA3
:1001F000256FEDD7266B010E256FE9D7020E266F0E
:06020000010E256FE4D79A
:06080000000080EF07F08C
:0408080020EF04F0E9
:0C081000444953502020200000EF05F068
:10082000A5443B801101040B0D01000800000000ED
:100830000000010000000000140010080000080281
:10084000D9CF09F0DACF0AF0E1CF07F0E2CF08F014
:10085000E9CF05F0EACF06F0A192E00EB36EB26ADE
:100860001FA22FD0792F2DD077AF16D020EE5FF0BA
:1008700010EE6FF0080E286EE61CDE16282EFCD750
:1008800020EE5FF010EE67F0080E286EE650DE12E4
:10089000282EFCD7777F15D020EE5FF010EE67F0A2
:1008A000080E286EE61CDE16282EFCD720EE5FF020
:1008B00010EE6FF0080E286EE650DE12282EFCD7E0
:1008C000777F020E286E3028030B306E20EE5FF02B
:1008D0003044D9268A50CC0B8A6EC950DF50C96E7D
:1008E0009EA6FED79E96280602E0D92AF3D78B88CB
:1008F00000000000000000008B98314631500F0BC3
:10090000E8B002D0E8A202D0326E0AD0326AE8B46F
:1009100002D0328A01D032880000000000000000BE
:100920008A5032108A6E09C0D9FF0AC0DAFF07C0A8
:10093000E1FF08C0E2FF05C0E9FF06C0EAFF1100C1
:100A0000100020B01FD071BE07D01CD0F2A4F9D7BF
:100A1000F294D59E1F9CF5D76F500F0B0F6E72503E
:100A2000F00B0F10726E62B60CD065AC03D0ABEC5D
:100A30000DF007D0655201E104D020808CEC0CF061
:100A400001D0609E1FB201D015D020B60CD09EA060
:100A500011D09E9020A407D07A2F0CD08A7C000061
:100A60000000100E7A6F20A605D02A2E03D00A0EA1
:100A70002A6E520E80B47BD0FF0E216E226A236A4A
:100A8000100E7A6F232E42EF05F020A40AD09EA00C
:100A900008D07A2F06D08A7C00000000100E7A6FF2
:100AA0009E90222E42EF05F080B447D0212E42EFD7
:100AB00005F01FA266D0206A8A9C8A8EF26A010E17
:100AC0001E6E010E746E000ED8EC0BF0510EACECE5
:100AD0000BF01A6A1B6A80A4FED7A7EC0CF080A466
:100AE000FAD7020E746E000ED8EC0BF0742A000ECA
:100AF000D8EC0BF01FA20DD0010E746E000ED8ECD6
:100B00000BF0206A1F928A9C8A8EC00EF26E01EF53
:100B100005F0010E746E010ED8EC0BF01F82C00EB2
:100B2000F26E49EC0DF02092ABEC0BF02084010E3C
:100B3000746E040ED8EC0BF027D01FA262D720A64B
:100B400060D720A40DD020948A8C1F82520EACEC6A
:100B50000BF0010E746E080E206ED8EC0BF007D06F
:100B6000208449EC0DF02092ABEC0BF00DD020A2CC
:100B70000BD020842092010E746E040ED8EC0BF082
:100B800003D020828A9EA7D720A001D03AD020A6E9
:100B900038D7C00EF26EE7D020A8E5D0208A49D120
:100BA00020A8E1D05B5002E0120E5B6027D1208CC0
:100BB00040D1FAEC0BF0000805E148EC0BF000D056
:100BC000B3EF06F0F2EF06F001EF07F020A4CBD070
:100BD00002EC0CF0C8D020A4C6D018EC0CF0C3D0A6
:100BE0001A501B24D8A468EC0CF0BDD0FAEC0BF022
:100BF0000008E8E169CF5DF06ACF5BF00DEC0BF027
:100C0000B2D0900E665CE0E0910E665CDDE0920E84
:100C1000665CDAE0980E665CD7E0990E665CD4E01C
:100C20009A0E665CD1E05C0E665C60E05D0E665C10
:100C300049E0730E665C6CE0750E665C51E0420E36
:100C4000665C2EE00D0E665CCBE0100E665CBEE0CE
:100C5000110E665CC0E0530E665C7FE0540E665C6D
:100C600074E0550E665C28E0560E665C1BE0D20E02
:100C7000665C1AE09C0E665C1BE0950E665C8CE080
:100C8000B20E665C8DE0960E8C5D18E0710E8C5D88
:100C900017E0570E665C28E0580E665C0BE063D0E8
:100CA000B7EF06F0E4EF06F0F6EF06F0B3EF06F06C
:100CB000F6EF05F0D9EF05F0E6EF06F09EEF06F04F
:100CC00097EF06F0FAEC0BF000080CE149EC0DF0A0
:100CD000520EACEC0BF0609E080E206EB3EF06F0E7
:100CE000CEEF06F0F2EF06F009EF07F01FA20CD0EE
:100CF000FAEC0BF00008F6E1FF0E746E3F0E756E15
:100D0000FF0ED8EC0BF0FF0067506824EBE1F4D73E
:100D10001FA207D0FAEC0BF00008E4E12EEC0CF077
:100D200022D067506824DEE12EEC0CF01CD0FAECE7
:100D30000BF00008D7E12DEC0DF015D0FAEC0BF01C
:100D40000008D0E13DEC0DF00ED0FAEC0BF00008FD
:100D5000C9E12098209E209A06D0FAEC0BF00008FA
:100D600041E1208800D0609E209001EF05F020A492
:100D7000FAD777EC0BF0010E746E080ED8EC0BF07E
:100D80002092209420861F829E90CD900A0E2A6E7B
:100D9000520EACEC0BF08A8C8A9EE5D7FAEC0BF085
:100DA000000820E169CF1EF095EC0DF0520EACEC7E
:100DB0000BF0B3EF06F020A4D6D7500E4D6E030E05
:100DC000386EEBEC0BF0CFD710EF07F0FAEC0BF02E
:100DD000000808E120A807D02BEC0DF0590EACEC70
:100DE0000BF0B9D7C0D7020E78EF0CF020A8BBD714
:100DF0005B5004E0120E5B6001D01BD0060E78EF52
:100E00000CF01FA2B0D7C0EC0CF0ADD7030E78EFFA
:100E10000CF0FAEC0BF00008E5E184EC0AF0A3D743
:100E2000FAEC0BF0000803E13CEC0BF09CD7F2EF7E
:100E300006F01FA2B3EF06F0C0EC09F0000810E0C6
:100E400020BC0AD020BA53D05B060EEC08F0000894
:100E500022E0040E80EF0CF0050E80EF0CF047D07E
:100E600020BC2DD020AA08D08FEC09F095EC08F01A
:100E7000590EACEC0BF03BD05B5001E115D05B069A
:100E80000EEC08F0000803E0040E80EF0CF0C0EC5C
:100E900009F08FEC09F02CD095EC08F0590EACEC71
:100EA0000BF061D75B6605D0060E84EC0CF0B3EF57
:100EB00006F0120E5B60F8D75CEC0AF054D78FECAA
:100EC00009F05BC052F0522A5B50EBCF53F0D30EC7
:100ED0004D6E8DC04EF08EC04FF08FC050F090C060
:100EE00051F0070E386EEFEC0BF001D02098209CEB
:100EF000609E2090FA6AB3EF06F0060E80EF0CF0C9
:100F00000F019B8C5D6B5C6B5F6B5E6BF16AF19E9E
:100F10005B6900018B6A000E946E00EE00F0EE6AD1
:100F2000E966FDD7F26A040E926E8A6A080E936E25
:100F30008A9E8A9C8184220EC66EC78C306A110EEE
:100F4000316ED08EE06A7F6A206A2B6A6F8EB00E97
:100F5000726E728A7250126E0E017D6B606A306B17
:100F6000806B906BA06BB06BC06BD06B0F0E436F40
:100F70009E0E446F030E456F0001200E706E0EEE44
:100F8000F8F0EE6AE962FDD76F6ABB6A000E786E10
:100F90009F6AA26AA06A310ECD6E000ECF6ECE6E31
:100FA000100E7A6F040E2C6EA082A282E00EB36E39
:100FB000B26A230EB16E476A010E1E6EF06AB06A05
:100FC0009E6A609E719E719C776A756A1F6A010EA7
:100FD000746ED2EC0BF0206E080805E0000E206E57
:100FE000D8EC0BF011D00DEC09F01F82746A8AEC7A
:100FF0000BF020B402D0B180010E8A9E20A48A8C0E
:10100000609E209001EF05F01F921A6A1B6A2BEC7C
:101010000DF05E688A9C8A8E01EF05F000D020BA40
:10102000000CC0EC09F000080FE18FEC09F045B0AE
:1010300000D05B505CC0EBFF2DEC0AF045B0000C1B
:10104000590EACEC0BF0000C29EC08F00008EFE0B6
:10105000010C756A040E746ED2EC0BF0000801E10D
:10106000010C756A060E746ED2EC0BF0396E070E29
:10107000746ED2EC0BF03A6E3F6601D00DD087EC67
:1010800009F0405054EC0AF0060EE92639C0EEFF94
:101090003AC0EEFF27EC0AF08FEC09F03A5054EC1E
:1010A0000AF0040EE926756A060E746EEE50D8EC4E
:1010B0000BF0070E746EEE50D8EC0BF041C074FFCD
:1010C0003950D8EC0BF0742A3A50D8EC0BF03A5067
:1010D00054EC0AF08DC0EEFF8EC0EEFF8FC0EEFF25
:1010E00090C0EEFF3FC0EEFF40C0EEFFEE6AEE6A3A
:1010F000180E256E000EEB6AE82A252EFCD742500A
:10110000500F746ED2EC0BF0E82AD8EC0BF0050E01
:10111000746ED2EC0BF0010FD8EC0BF07406D2EC2D
:101120000BF0E806D8EC0BF0000CC0EC09F000085E
:1011300001E01200756A060E746ED2EC0BF0436E7D
:10114000070E746ED2EC0BF0446E8FEC09F03A503F
:1011500054EC0AF0040EE926EFCF3DF043C0EEFF59
:10116000EFCF3EF044C0EEFFEFCF3BF0EE6AEFCFA3
:101170003CF0EE6A060E746E3950D8EC0BF0070E98
:10118000746E3A50D8EC0BF02DEC0AF03B6601D0AF
:1011900011D03BC039F03CC03AF08FEC09F03A5026
:1011A00054EC0AF0040EE9263DC0EEFF3EC0EEFF0F
:1011B0002DEC0AF041C074FF3D50D8EC0BF0742ABE
:1011C0003E50D8EC0BF03D6601D011D03DC039F057
:1011D0003EC03AF08FEC09F03A5054EC0AF0060E9B
:1011E000E9263BC0EEFF3CC0EEFF2DEC0AF042507A
:1011F000500F746ED2EC0BF0E806D8EC0BF0050E35
:10120000746ED2EC0BF0E806D8EC0BF07406D2EC5E
:101210000BF0010FD8EC0BF01200456A756A060E50
:10122000746ED2EC0BF0356E742AD2EC0BF03524D0
:10123000E86612001DEC09F01200756A050E746E66
:10124000000ED8EC0BF0800E7406D8EC0BF0400EBC
:10125000216E100E746E000ED8EC0BF0742A212E45
:10126000FAD7200E216E500E746E000ED8EC0BF0E3
:10127000742A212EFAD7FCEC09F0060E746E300E9B
:10128000396ED8EC0BF0070E746E000E3A6ED8EC87
:101290000BF01FEC0AF03B6A3C6A800E216E3AC0EC
:1012A00035F039C036F0355054EC0AF0200E3526B2
:1012B000000E3622EE6AEE6AEE6AEE6A21061BE046
:1012C00036C0EEFF35C0EEFF3BC0EEFF3CC0EEFF88
:1012D00039C03BF03AC03CF02150010B05E0200E34
:1012E0003A26000E3922DFD72DEC0AF0200E3A26DE
:1012F000000E3922D4D7356A35C0EEFF35C0EEFF77
:101300003BC0EEFF3CC0EEFF2DEC0AF01200C00E19
:101310004014F66E3F50F76E400E256E08D0C00E9A
:101320003A14F66E3950F76EF86A400E256EF86A78
:10133000EACF13F0E9CF14F001EE00F00900F55008
:10134000EE6E252EFBD714C0E9FF13C0EAFF120092
:10135000F86A39C0F7FF3AC0F6FF200E256EE7D7CE
:10136000F86A39C0F7FF3AC0F6FF100E256EDFD7D6
:10137000F86A39C0F7FF3AC0F6FF080E256ED7D7D6
:101380008E5190191F0B356E426E3546756A100EE0
:101390003524416E746ED2EC0BF0396E3F6E742AB8
:1013A000D2EC0BF03A6E406E396601D0010C3A5027
:1013B000F66E3950F76EF86A556A0900F5508D637C
:1013C000552A0900F5508E63552A0900F5508F63A0
:1013D000552A0900F5509063552A556606D03A50B3
:1013E00054EC0AF0080EE926000C0900F550396E9D
:1013F0000900F5503A6ED8D7400E216E000EF66EF9
:10140000300EF76EF86A0DEC0AF0212E01D01200B2
:10141000400EF626000EF722F6D77F8E7F9C7F8443
:101420007F88F2CF11F0F26A550E7E6EAA0E7E6EA4
:101430007F8200000000000011C0F2FF120001EEE8
:1014400000F0400E256EEE6A252EFDD71200C00E6C
:101450004014F66E3F50F76E05D0C00E3A14F66E8B
:101460003950F76EF86A0DEC0AF001EE00F03F0E0D
:10147000256EEE50F56E0D00252EFBD7EE50F56E65
:101480000C0044EC0AF012007F8E7F9C7F987F84D2
:10149000F2CF11F0F26A550E7E6EAA0E7E6E7F823A
:1014A000000011C0F2FF1200200B03E101EE00F07A
:1014B000120001EE20F01200C0EC09F0000803E079
:1014C0005C6A5B6A0ED05B5052E05B06110E5B609B
:1014D0004ED0A8EC09F001EE08F05B50EB505C6ECA
:1014E0005B2AD30E4D6E00C14EF001C14FF002C118
:1014F00050F003C151F05BC052F05CC053F0070ED6
:10150000386EEFEC0BF01200356A050E746ED2ECFB
:101510000BF000082CE0546A200E566E100E746E0C
:10152000D2EC0BF0396E742AD2EC0BF03A6E3966BD
:1015300004D0560620E0742AF3D7B8EC09F0542AF8
:1015400000C150F001C151F002C152F003C153F08B
:10155000F20E4D6E080E386EEBEC0BF0D2EC0DF087
:10156000D2EC0DF004C139F005C13AF0E0D7070E16
:1015700084EC0CF012001200426A566A576A42501C
:10158000500F746ED2EC0BF0000F05E05726575049
:101590005D6001D004D057C056F0422AF0D74244D3
:1015A000100F746ED2EC0BF0396E742AD2EC0BF083
:1015B0003A6E5D5056601200562AB8EC09F004C12C
:1015C00039F005C13AF0F5D7050E746ED2EC0BF088
:1015D00000081FE05D501DE05D06050E746ED2EC44
:1015E0000BF05D6016D0BCEC0AF0B8EC09F000C15D
:1015F00050F001C151F002C152F003C153F05D2A15
:101600005DC054F0F20E4D6E080E386EEBEC0BF030
:101610001200070E84EC0CF01200050E746ED2EC72
:101620000BF00008F6E05D50F4E05D06050E746E08
:10163000D2EC0BF05D60EDD75B501AE05B06110E4B
:101640005B6016D0BCEC0AF0A8EC09F001EE08F0E3
:101650005B50EBCF52F05B2A5D2AB50E4D6E5DC03C
:1016600050F05BC051F0060E386EEBEC0BF0120040
:10167000060E84EC0CF01200040E746ED2EC0BF02B
:10168000506E700E4D6E040E386EEBEC0BF01200C7
:10169000050E746ED2EC0BF0506E740E4D6E040E8F
:1016A000386EEBEC0BF01200E1CF07F0E2CF08F060
:1016B000E9CF05F0EACF06F000EE47F01FEE10F09C
:1016C0000F0110B7FED70001EE50E66E550EE9622D
:1016D000FBD70F0110B7FED71087000107C0E1FF4D
:1016E00008C0E2FF05C0E9FF06C0EAFF120067CFAD
:1016F0001AF068CF1BF0020E746E6750D8EC0BF036
:10170000742A6850D8EC0BF0010E746E080ED8ECF9
:101710000BF01200D2EC0BF0176EB6EC0BF0F00EE3
:101720004816185048121950496E020E746ED2ECC9
:101730000BF01A6E742AD2EC0BF01B6E0F0100B77F
:10174000FED7016B1850016F1950026FB00E0113D4
:10175000056B00011200500E4D6E1AC04EF01BC0FA
:101760004FF0030E386EEBEC0BF0120017C019F0BF
:10177000193A1944E00B196E17C018F018421842B4
:1017800018400F0B186E120062CF19F0193A194069
:10179000070B196E61CF18F0184618461844780BDD
:1017A000191012007F9E7F9C7F80000073501200F2
:1017B000736E7F9E7F9C7F84F2CF11F0F26A550E8C
:1017C0007E6EAA0E7E6E7F8211C0F2FF7FB2FED7C0
:1017D000A19C7F9412001AC04EF01BC04FF03850ED
:1017E0004C6E0F0E4816B00E48120A0E2B6E54ECBB
:1017F0000BF012001A50675C04E11B50685C01E1B9
:10180000000C010CEF0E4D6E200EF66E080EF76EFA
:1018100000EE4EF0070E216E7F8E0900F5CFEEFF31
:10182000212EFBD77F9E080E386EEFEC0BF01200D6
:10183000E20E4D6E100EF66E080EF76E00EE4EF0D4
:10184000070E216E7F8E0900F5CFEEFF212EFBD70C
:101850007F9E080E386EEFEC0BF012006950000806
:1018600021E0140E69CF35F03506356026D09B0E89
:101870004D6E070E356204D061EC0CF0516E0BD04A
:10188000200EF66E080EF76EF86A6904F6267F8E53
:101890000800F5CF51F069CF50F0050E386EEBEC33
:1018A0000BF012009B0E4D6E140E516E69CF50F06E
:1018B000050E386EEBEC0BF012000A0E84EC0CF007
:1018C0001200010E1FB20409356E35863550120024
:1018D000A7EC0CF0B60E4D6EA50E506E3B0E516E81
:1018E00061EC0CF0526E060E386EEBEC0BF0120051
:1018F00084EC0CF0B3EF06F084EC0CF078EF07F01A
:1019000084EC0CF077EF07F0506E6F0E4D6E040E06
:10191000386EEBEC0BF0120066CF8CF067CF8DF0D9
:1019200068CF8EF069CF8FF06ACF90F06BCF5BF00D
:101930006CCF5CF0980E665C07E0990E665C04E084
:101940009A0E665C01E012008D6B8E6B1200640EC5
:10195000236ED2EC0DF0232EFCD71200F70E4D6E45
:10196000EACF50F0E9CF51F058C052F05AC053F0CE
:10197000546A080E386EEBEC0BF0A7EC0CF012007A
:10198000E2CF15F0E1CF16F0C0EC09F0000801E05D
:1019900012008FEC09F0E9CF14F0EACF13F0EACF90
:1019A000E2FF100EE926EFCF5EF05EA422D0100E0B
:1019B000E95EE9CFE1FF080EE12620EE5FF0080EB8
:1019C000216E8CB10BD05EA21200E6CF35F0351C33
:1019D000DF16EE14DE12212EF8D712005EA01200E0
:1019E000EECF35F0351CDF16E650DE12212EF8D78B
:1019F0001200100EE95E10EE67F0080E216E8CB139
:101A000016D0EACFDAFFE9CFD9FF080ED926DE1CBF
:101A1000EE14E612212EFBD7080ED95E10EE6FF001
:101A2000080E216EDE50E612212EFCD7120020EEA9
:101A30006FF0EE1CE616DE16212EFBD714C0E9FF70
:101A400013C0EAFF10EE5FF0080E216EEE1CE616E2
:101A5000212EFCD712001DEC09F0920E8F25746E1A
:101A60007406D2EC0BF0516E8FC050F0970E4D6E95
:101A7000050E386EEBEC0BF01200020E8F611200B7
:101A80008F5106E0E806920F746E9051D8EC0BF07F
:101A90001200E1CF7CF0E2CF7DF020820E0E216EAD
:101AA00000EE7EF0EE6A212EFDD7000ED76E000EFE
:101AB000D66E840ED56EF2940F01BF0E116FE00E3C
:101AC000126F400E156F10B7FED7108710B7FED7F4
:101AD000156B0001F2B415D071BE01D0FBD76F5069
:101AE0000F0B0F6E7250F00B0F10726E62B607D0B4
:101AF00020A205D0655203E1B5EC0DF000D0609E48
:101B0000E9D7D59EF2941E6A1E2A2F6A2F8010EE06
:101B10007EF0E72804E1080E1E26E12AFAD72F50AE
:101B2000E71403E02F361E2AFAD7640E1E600DD08C
:101B3000000E746E1E50D8EC0BF01E508AEC0BF0A9
:101B40007CC0E1FF7DC0E2FF1200070E84EC0CF0C8
:101B50001E681E9EEDD720B212001FA212000F01B8
:101B600000B7FED7008700011200656612006138D9
:101B7000E832780B356E6238E842070B35101E6E7E
:101B800010EE7EF02F6A2F80080E1E6403D01E5EBA
:101B9000E12AFBD71E4E02D02F46FCD72F50E7126A
:101BA000609E12000A0E226E216A212ED5EF0DF0E2
:061BB000222EFAD71200FC
:020000040030CA
:040000001503667C02
:020005008981EF
:060008000FC00FE00F40E5
:0200000400F00A
:080000007F0000000000000079
:1000100000000000000000000000000000000000E0
:1000200000000000000000000000000000000000D0
:1000300000000000000000000000000000000000C0
:1000400000000000000000000000000000000000B0
:1000500000000000000000000000000000000000A0
:100060000000000000000000000000000000000090
:100070000101010101010101010101010101010170
:100080000101010101010101010101010101010160
:04009000000000006C
:0203FE000000FD
:00000001FF
